{
  "abi": [
    {
      "inputs": [
        {
          "internalType": "address",
          "name": "_usdc",
          "type": "address"
        },
        {
          "internalType": "address",
          "name": "_ausd",
          "type": "address"
        }
      ],
      "stateMutability": "nonpayable",
      "type": "constructor"
    },
    {
      "inputs": [],
      "name": "ausd",
      "outputs": [
        {
          "internalType": "address",
          "name": "",
          "type": "address"
        }
      ],
      "stateMutability": "view",
      "type": "function"
    },
    {
      "inputs": [
        {
          "internalType": "address",
          "name": "",
          "type": "address"
        }
      ],
      "name": "depositBalance",
      "outputs": [
        {
          "internalType": "uint256",
          "name": "",
          "type": "uint256"
        }
      ],
      "stateMutability": "view",
      "type": "function"
    },
    {
      "inputs": [
        {
          "internalType": "uint256",
          "name": "_amount",
          "type": "uint256"
        }
      ],
      "name": "depositToken",
      "outputs": [],
      "stateMutability": "nonpayable",
      "type": "function"
    },
    {
      "inputs": [
        {
          "internalType": "address",
          "name": "",
          "type": "address"
        }
      ],
      "name": "hasDeposited",
      "outputs": [
        {
          "internalType": "bool",
          "name": "",
          "type": "bool"
        }
      ],
      "stateMutability": "view",
      "type": "function"
    },
    {
      "inputs": [],
      "name": "issueInterest",
      "outputs": [],
      "stateMutability": "nonpayable",
      "type": "function"
    },
    {
      "inputs": [
        {
          "internalType": "uint256",
          "name": "",
          "type": "uint256"
        }
      ],
      "name": "stakers",
      "outputs": [
        {
          "internalType": "address",
          "name": "",
          "type": "address"
        }
      ],
      "stateMutability": "view",
      "type": "function"
    },
    {
      "inputs": [],
      "name": "usdc",
      "outputs": [
        {
          "internalType": "address",
          "name": "",
          "type": "address"
        }
      ],
      "stateMutability": "view",
      "type": "function"
    },
    {
      "inputs": [
        {
          "internalType": "uint256",
          "name": "_amount",
          "type": "uint256"
        }
      ],
      "name": "withdraw",
      "outputs": [],
      "stateMutability": "nonpayable",
      "type": "function"
    }
  ],
  "bytecode": "608060405234801561001057600080fd5b5060405161068538038061068583398101604081905261002f9161007c565b600080546001600160a01b039384166001600160a01b031991821617909155600180549290931691161790556100af565b80516001600160a01b038116811461007757600080fd5b919050565b6000806040838503121561008f57600080fd5b61009883610060565b91506100a660208401610060565b90509250929050565b6105c7806100be6000396000f3fe608060405234801561001057600080fd5b50600436106100885760003560e01c8063956501bb1161005b578063956501bb146100ed578063c23af8321461011b578063f2c16e6f1461012e578063fd5e6dd11461016157600080fd5b80632a0263811461008d5780632e1a7d4d146100975780633e413bee146100aa5780636215be77146100da575b600080fd5b610095610174565b005b6100956100a53660046104b5565b610255565b6000546100bd906001600160a01b031681565b6040516001600160a01b0390911681526020015b60405180910390f35b6100956100e83660046104b5565b610374565b61010d6100fb3660046104ce565b60036020526000908152604090205481565b6040519081526020016100d1565b6001546100bd906001600160a01b031681565b61015161013c3660046104ce565b60046020526000908152604090205460ff1681565b60405190151581526020016100d1565b6100bd61016f3660046104b5565b61048b565b60005b60025481101561025257600060028281548110610196576101966104fe565b60009182526020808320909101546001600160a01b03168083526003909152604090912054909150801561023d5760015460405163a9059cbb60e01b81526001600160a01b038481166004830152602482018490529091169063a9059cbb906044016020604051808303816000875af1158015610217573d6000803e3d6000fd5b505050506040513d601f19601f8201168201806040525081019061023b9190610514565b505b5050808061024a9061054c565b915050610177565b50565b33600090815260036020526040902054806102ac5760405162461bcd60e51b8152602060048201526013602482015272042616c616e63652063616e6e6f74206265203606c1b604482015260640160405180910390fd5b60005460405163a9059cbb60e01b8152336004820152602481018490526001600160a01b039091169063a9059cbb906044016020604051808303816000875af11580156102fd573d6000803e3d6000fd5b505050506040513d601f19601f820116820180604052508101906103219190610514565b503360009081526003602052604081208054849290610341908490610565565b9091555061035190508282610565565b60000361037057336000908152600460205260409020805460ff191690555b5050565b6000546040516323b872dd60e01b8152336004820152306024820152604481018390526001600160a01b03909116906323b872dd906064016020604051808303816000875af11580156103cb573d6000803e3d6000fd5b505050506040513d601f19601f820116820180604052508101906103ef9190610514565b50336000908152600360205260408120805483929061040f90849061057e565b90915550503360009081526004602052604090205460ff1661046e57600280546001810182556000919091527f405787fa12a823e0f2b7631cc41b3ba8828b3321ca811111fa75cd3aa3bb5ace0180546001600160a01b031916331790555b50336000908152600460205260409020805460ff19166001179055565b6002818154811061049b57600080fd5b6000918252602090912001546001600160a01b0316905081565b6000602082840312156104c757600080fd5b5035919050565b6000602082840312156104e057600080fd5b81356001600160a01b03811681146104f757600080fd5b9392505050565b634e487b7160e01b600052603260045260246000fd5b60006020828403121561052657600080fd5b815180151581146104f757600080fd5b634e487b7160e01b600052601160045260246000fd5b60006001820161055e5761055e610536565b5060010190565b8181038181111561057857610578610536565b92915050565b808201808211156105785761057861053656fea26469706673582212202531f1a7bba899df90735a38bed51f25395c6f7678b9cdaabc9881076cfbeb4064736f6c63430008110033",
  "bytecodeSha1": "c5f6d0d52a313d5c3ae8fd5616a3d75ccb15d04e",
  "compiler": {
    "evm_version": "istanbul",
    "optimizer": {
      "enabled": true,
      "runs": 200
    },
    "version": "0.8.17+commit.8df45f5f"
  },
  "contractName": "DefiBank",
  "language": "Solidity",
  "natspec": {
    "kind": "dev",
    "methods": {},
    "version": 1
  },
  "opcodes": "PUSH1 0x80 PUSH1 0x40 MSTORE CALLVALUE DUP1 ISZERO PUSH2 0x10 JUMPI PUSH1 0x0 DUP1 REVERT JUMPDEST POP PUSH1 0x4 CALLDATASIZE LT PUSH2 0x88 JUMPI PUSH1 0x0 CALLDATALOAD PUSH1 0xE0 SHR DUP1 PUSH4 0x956501BB GT PUSH2 0x5B JUMPI DUP1 PUSH4 0x956501BB EQ PUSH2 0xED JUMPI DUP1 PUSH4 0xC23AF832 EQ PUSH2 0x11B JUMPI DUP1 PUSH4 0xF2C16E6F EQ PUSH2 0x12E JUMPI DUP1 PUSH4 0xFD5E6DD1 EQ PUSH2 0x161 JUMPI PUSH1 0x0 DUP1 REVERT JUMPDEST DUP1 PUSH4 0x2A026381 EQ PUSH2 0x8D JUMPI DUP1 PUSH4 0x2E1A7D4D EQ PUSH2 0x97 JUMPI DUP1 PUSH4 0x3E413BEE EQ PUSH2 0xAA JUMPI DUP1 PUSH4 0x6215BE77 EQ PUSH2 0xDA JUMPI JUMPDEST PUSH1 0x0 DUP1 REVERT JUMPDEST PUSH2 0x95 PUSH2 0x174 JUMP JUMPDEST STOP JUMPDEST PUSH2 0x95 PUSH2 0xA5 CALLDATASIZE PUSH1 0x4 PUSH2 0x4B5 JUMP JUMPDEST PUSH2 0x255 JUMP JUMPDEST PUSH1 0x0 SLOAD PUSH2 0xBD SWAP1 PUSH1 0x1 PUSH1 0x1 PUSH1 0xA0 SHL SUB AND DUP2 JUMP JUMPDEST PUSH1 0x40 MLOAD PUSH1 0x1 PUSH1 0x1 PUSH1 0xA0 SHL SUB SWAP1 SWAP2 AND DUP2 MSTORE PUSH1 0x20 ADD JUMPDEST PUSH1 0x40 MLOAD DUP1 SWAP2 SUB SWAP1 RETURN JUMPDEST PUSH2 0x95 PUSH2 0xE8 CALLDATASIZE PUSH1 0x4 PUSH2 0x4B5 JUMP JUMPDEST PUSH2 0x374 JUMP JUMPDEST PUSH2 0x10D PUSH2 0xFB CALLDATASIZE PUSH1 0x4 PUSH2 0x4CE JUMP JUMPDEST PUSH1 0x3 PUSH1 0x20 MSTORE PUSH1 0x0 SWAP1 DUP2 MSTORE PUSH1 0x40 SWAP1 KECCAK256 SLOAD DUP2 JUMP JUMPDEST PUSH1 0x40 MLOAD SWAP1 DUP2 MSTORE PUSH1 0x20 ADD PUSH2 0xD1 JUMP JUMPDEST PUSH1 0x1 SLOAD PUSH2 0xBD SWAP1 PUSH1 0x1 PUSH1 0x1 PUSH1 0xA0 SHL SUB AND DUP2 JUMP JUMPDEST PUSH2 0x151 PUSH2 0x13C CALLDATASIZE PUSH1 0x4 PUSH2 0x4CE JUMP JUMPDEST PUSH1 0x4 PUSH1 0x20 MSTORE PUSH1 0x0 SWAP1 DUP2 MSTORE PUSH1 0x40 SWAP1 KECCAK256 SLOAD PUSH1 0xFF AND DUP2 JUMP JUMPDEST PUSH1 0x40 MLOAD SWAP1 ISZERO ISZERO DUP2 MSTORE PUSH1 0x20 ADD PUSH2 0xD1 JUMP JUMPDEST PUSH2 0xBD PUSH2 0x16F CALLDATASIZE PUSH1 0x4 PUSH2 0x4B5 JUMP JUMPDEST PUSH2 0x48B JUMP JUMPDEST PUSH1 0x0 JUMPDEST PUSH1 0x2 SLOAD DUP2 LT ISZERO PUSH2 0x252 JUMPI PUSH1 0x0 PUSH1 0x2 DUP3 DUP2 SLOAD DUP2 LT PUSH2 0x196 JUMPI PUSH2 0x196 PUSH2 0x4FE JUMP JUMPDEST PUSH1 0x0 SWAP2 DUP3 MSTORE PUSH1 0x20 DUP1 DUP4 KECCAK256 SWAP1 SWAP2 ADD SLOAD PUSH1 0x1 PUSH1 0x1 PUSH1 0xA0 SHL SUB AND DUP1 DUP4 MSTORE PUSH1 0x3 SWAP1 SWAP2 MSTORE PUSH1 0x40 SWAP1 SWAP2 KECCAK256 SLOAD SWAP1 SWAP2 POP DUP1 ISZERO PUSH2 0x23D JUMPI PUSH1 0x1 SLOAD PUSH1 0x40 MLOAD PUSH4 0xA9059CBB PUSH1 0xE0 SHL DUP2 MSTORE PUSH1 0x1 PUSH1 0x1 PUSH1 0xA0 SHL SUB DUP5 DUP2 AND PUSH1 0x4 DUP4 ADD MSTORE PUSH1 0x24 DUP3 ADD DUP5 SWAP1 MSTORE SWAP1 SWAP2 AND SWAP1 PUSH4 0xA9059CBB SWAP1 PUSH1 0x44 ADD PUSH1 0x20 PUSH1 0x40 MLOAD DUP1 DUP4 SUB DUP2 PUSH1 0x0 DUP8 GAS CALL ISZERO DUP1 ISZERO PUSH2 0x217 JUMPI RETURNDATASIZE PUSH1 0x0 DUP1 RETURNDATACOPY RETURNDATASIZE PUSH1 0x0 REVERT JUMPDEST POP POP POP POP PUSH1 0x40 MLOAD RETURNDATASIZE PUSH1 0x1F NOT PUSH1 0x1F DUP3 ADD AND DUP3 ADD DUP1 PUSH1 0x40 MSTORE POP DUP2 ADD SWAP1 PUSH2 0x23B SWAP2 SWAP1 PUSH2 0x514 JUMP JUMPDEST POP JUMPDEST POP POP DUP1 DUP1 PUSH2 0x24A SWAP1 PUSH2 0x54C JUMP JUMPDEST SWAP2 POP POP PUSH2 0x177 JUMP JUMPDEST POP JUMP JUMPDEST CALLER PUSH1 0x0 SWAP1 DUP2 MSTORE PUSH1 0x3 PUSH1 0x20 MSTORE PUSH1 0x40 SWAP1 KECCAK256 SLOAD DUP1 PUSH2 0x2AC JUMPI PUSH1 0x40 MLOAD PUSH3 0x461BCD PUSH1 0xE5 SHL DUP2 MSTORE PUSH1 0x20 PUSH1 0x4 DUP3 ADD MSTORE PUSH1 0x13 PUSH1 0x24 DUP3 ADD MSTORE PUSH19 0x42616C616E63652063616E6E6F74206265203 PUSH1 0x6C SHL PUSH1 0x44 DUP3 ADD MSTORE PUSH1 0x64 ADD PUSH1 0x40 MLOAD DUP1 SWAP2 SUB SWAP1 REVERT JUMPDEST PUSH1 0x0 SLOAD PUSH1 0x40 MLOAD PUSH4 0xA9059CBB PUSH1 0xE0 SHL DUP2 MSTORE CALLER PUSH1 0x4 DUP3 ADD MSTORE PUSH1 0x24 DUP2 ADD DUP5 SWAP1 MSTORE PUSH1 0x1 PUSH1 0x1 PUSH1 0xA0 SHL SUB SWAP1 SWAP2 AND SWAP1 PUSH4 0xA9059CBB SWAP1 PUSH1 0x44 ADD PUSH1 0x20 PUSH1 0x40 MLOAD DUP1 DUP4 SUB DUP2 PUSH1 0x0 DUP8 GAS CALL ISZERO DUP1 ISZERO PUSH2 0x2FD JUMPI RETURNDATASIZE PUSH1 0x0 DUP1 RETURNDATACOPY RETURNDATASIZE PUSH1 0x0 REVERT JUMPDEST POP POP POP POP PUSH1 0x40 MLOAD RETURNDATASIZE PUSH1 0x1F NOT PUSH1 0x1F DUP3 ADD AND DUP3 ADD DUP1 PUSH1 0x40 MSTORE POP DUP2 ADD SWAP1 PUSH2 0x321 SWAP2 SWAP1 PUSH2 0x514 JUMP JUMPDEST POP CALLER PUSH1 0x0 SWAP1 DUP2 MSTORE PUSH1 0x3 PUSH1 0x20 MSTORE PUSH1 0x40 DUP2 KECCAK256 DUP1 SLOAD DUP5 SWAP3 SWAP1 PUSH2 0x341 SWAP1 DUP5 SWAP1 PUSH2 0x565 JUMP JUMPDEST SWAP1 SWAP2 SSTORE POP PUSH2 0x351 SWAP1 POP DUP3 DUP3 PUSH2 0x565 JUMP JUMPDEST PUSH1 0x0 SUB PUSH2 0x370 JUMPI CALLER PUSH1 0x0 SWAP1 DUP2 MSTORE PUSH1 0x4 PUSH1 0x20 MSTORE PUSH1 0x40 SWAP1 KECCAK256 DUP1 SLOAD PUSH1 0xFF NOT AND SWAP1 SSTORE JUMPDEST POP POP JUMP JUMPDEST PUSH1 0x0 SLOAD PUSH1 0x40 MLOAD PUSH4 0x23B872DD PUSH1 0xE0 SHL DUP2 MSTORE CALLER PUSH1 0x4 DUP3 ADD MSTORE ADDRESS PUSH1 0x24 DUP3 ADD MSTORE PUSH1 0x44 DUP2 ADD DUP4 SWAP1 MSTORE PUSH1 0x1 PUSH1 0x1 PUSH1 0xA0 SHL SUB SWAP1 SWAP2 AND SWAP1 PUSH4 0x23B872DD SWAP1 PUSH1 0x64 ADD PUSH1 0x20 PUSH1 0x40 MLOAD DUP1 DUP4 SUB DUP2 PUSH1 0x0 DUP8 GAS CALL ISZERO DUP1 ISZERO PUSH2 0x3CB JUMPI RETURNDATASIZE PUSH1 0x0 DUP1 RETURNDATACOPY RETURNDATASIZE PUSH1 0x0 REVERT JUMPDEST POP POP POP POP PUSH1 0x40 MLOAD RETURNDATASIZE PUSH1 0x1F NOT PUSH1 0x1F DUP3 ADD AND DUP3 ADD DUP1 PUSH1 0x40 MSTORE POP DUP2 ADD SWAP1 PUSH2 0x3EF SWAP2 SWAP1 PUSH2 0x514 JUMP JUMPDEST POP CALLER PUSH1 0x0 SWAP1 DUP2 MSTORE PUSH1 0x3 PUSH1 0x20 MSTORE PUSH1 0x40 DUP2 KECCAK256 DUP1 SLOAD DUP4 SWAP3 SWAP1 PUSH2 0x40F SWAP1 DUP5 SWAP1 PUSH2 0x57E JUMP JUMPDEST SWAP1 SWAP2 SSTORE POP POP CALLER PUSH1 0x0 SWAP1 DUP2 MSTORE PUSH1 0x4 PUSH1 0x20 MSTORE PUSH1 0x40 SWAP1 KECCAK256 SLOAD PUSH1 0xFF AND PUSH2 0x46E JUMPI PUSH1 0x2 DUP1 SLOAD PUSH1 0x1 DUP2 ADD DUP3 SSTORE PUSH1 0x0 SWAP2 SWAP1 SWAP2 MSTORE PUSH32 0x405787FA12A823E0F2B7631CC41B3BA8828B3321CA811111FA75CD3AA3BB5ACE ADD DUP1 SLOAD PUSH1 0x1 PUSH1 0x1 PUSH1 0xA0 SHL SUB NOT AND CALLER OR SWAP1 SSTORE JUMPDEST POP CALLER PUSH1 0x0 SWAP1 DUP2 MSTORE PUSH1 0x4 PUSH1 0x20 MSTORE PUSH1 0x40 SWAP1 KECCAK256 DUP1 SLOAD PUSH1 0xFF NOT AND PUSH1 0x1 OR SWAP1 SSTORE JUMP JUMPDEST PUSH1 0x2 DUP2 DUP2 SLOAD DUP2 LT PUSH2 0x49B JUMPI PUSH1 0x0 DUP1 REVERT JUMPDEST PUSH1 0x0 SWAP2 DUP3 MSTORE PUSH1 0x20 SWAP1 SWAP2 KECCAK256 ADD SLOAD PUSH1 0x1 PUSH1 0x1 PUSH1 0xA0 SHL SUB AND SWAP1 POP DUP2 JUMP JUMPDEST PUSH1 0x0 PUSH1 0x20 DUP3 DUP5 SUB SLT ISZERO PUSH2 0x4C7 JUMPI PUSH1 0x0 DUP1 REVERT JUMPDEST POP CALLDATALOAD SWAP2 SWAP1 POP JUMP JUMPDEST PUSH1 0x0 PUSH1 0x20 DUP3 DUP5 SUB SLT ISZERO PUSH2 0x4E0 JUMPI PUSH1 0x0 DUP1 REVERT JUMPDEST DUP2 CALLDATALOAD PUSH1 0x1 PUSH1 0x1 PUSH1 0xA0 SHL SUB DUP2 AND DUP2 EQ PUSH2 0x4F7 JUMPI PUSH1 0x0 DUP1 REVERT JUMPDEST SWAP4 SWAP3 POP POP POP JUMP JUMPDEST PUSH4 0x4E487B71 PUSH1 0xE0 SHL PUSH1 0x0 MSTORE PUSH1 0x32 PUSH1 0x4 MSTORE PUSH1 0x24 PUSH1 0x0 REVERT JUMPDEST PUSH1 0x0 PUSH1 0x20 DUP3 DUP5 SUB SLT ISZERO PUSH2 0x526 JUMPI PUSH1 0x0 DUP1 REVERT JUMPDEST DUP2 MLOAD DUP1 ISZERO ISZERO DUP2 EQ PUSH2 0x4F7 JUMPI PUSH1 0x0 DUP1 REVERT JUMPDEST PUSH4 0x4E487B71 PUSH1 0xE0 SHL PUSH1 0x0 MSTORE PUSH1 0x11 PUSH1 0x4 MSTORE PUSH1 0x24 PUSH1 0x0 REVERT JUMPDEST PUSH1 0x0 PUSH1 0x1 DUP3 ADD PUSH2 0x55E JUMPI PUSH2 0x55E PUSH2 0x536 JUMP JUMPDEST POP PUSH1 0x1 ADD SWAP1 JUMP JUMPDEST DUP2 DUP2 SUB DUP2 DUP2 GT ISZERO PUSH2 0x578 JUMPI PUSH2 0x578 PUSH2 0x536 JUMP JUMPDEST SWAP3 SWAP2 POP POP JUMP JUMPDEST DUP1 DUP3 ADD DUP1 DUP3 GT ISZERO PUSH2 0x578 JUMPI PUSH2 0x578 PUSH2 0x536 JUMP INVALID LOG2 PUSH5 0x6970667358 0x22 SLT KECCAK256 0x25 BALANCE CALL 0xA7 0xBB 0xA8 SWAP10 0xDF SWAP1 PUSH20 0x5A38BED51F25395C6F7678B9CDAABC9881076CFB 0xEB BLOCKHASH PUSH5 0x736F6C6343 STOP ADDMOD GT STOP CALLER ",
  "sha1": "1ac1220632f0d72c0ceb0888eaf29786ae8a24e9",
  "source": "pragma solidity ^0.8.0;\n\ninterface IERC20 {\n    function totalSupply() external view returns (uint);\n    function balanceOf(address account) external view returns (uint);\n    function transfer(address recipient, uint amount) external returns (bool);\n    function allowance(address owner, address spender) external view returns (uint);\n    function approve(address spender, uint amount) external returns (bool);\n    function transferFrom(\n        address sender,\n        address recipient,\n        uint amount\n    ) external returns (bool);\n    event Transfer(address indexed from, address indexed to, uint value);\n    event Approval(address indexed owner, address indexed spender, uint value);\n}\n\ncontract DefiBank {\n    // Deposit \n    // WithDraw\n    // IssueInterest \n    address public usdc;\n    address public ausd;\n\n    address[] public stakers;\n    \n    mapping(address => uint) public depositBalance;\n    mapping(address => bool) public hasDeposited;\n\n    constructor(address _usdc, address _ausd) {\n        usdc = _usdc;\n        ausd = _ausd;\n    }\n    \n    function depositToken(uint _amount ) public {\n        IERC20(usdc).transferFrom(msg.sender, address(this), _amount);\n        depositBalance[msg.sender] +=  _amount;\n\n        if(!hasDeposited[msg.sender]) {\n            stakers.push(msg.sender);\n        }\n\n        hasDeposited[msg.sender] = true;\n    }\n\n    function withdraw(uint _amount) public {\n        uint balance = depositBalance[msg.sender];\n        require(balance > 0, \"Balance cannot be 0\");\n        IERC20(usdc).transfer(msg.sender, _amount);\n\n        depositBalance[msg.sender] -= _amount;\n\n        if (balance - _amount == 0) {\n            hasDeposited[msg.sender] = false;\n        }\n    }\n\n    function issueInterest() public {\n        for(uint i; i< stakers.length; i++) {\n            address recipient = stakers[i];\n            uint balance = depositBalance[recipient];\n\n            if (balance > 0) {\n                IERC20(ausd).transfer(recipient, balance);\n            }\n        } \n    }\n}",
  "sourcePath": "contracts/DefiBank.sol",
  "type": "contract"
}